{"abi":[{"type":"constructor","inputs":[{"name":"_owner","type":"address","internalType":"address"},{"name":"_manager","type":"address","internalType":"address"}],"stateMutability":"nonpayable"},{"type":"receive","stateMutability":"payable"},{"type":"function","name":"balances","inputs":[{"name":"","type":"address","internalType":"address"}],"outputs":[{"name":"","type":"uint256","internalType":"uint256"}],"stateMutability":"view"},{"type":"function","name":"deposit","inputs":[],"outputs":[],"stateMutability":"payable"},{"type":"function","name":"execute","inputs":[{"name":"target","type":"address","internalType":"address"},{"name":"value","type":"uint256","internalType":"uint256"},{"name":"data","type":"bytes","internalType":"bytes"}],"outputs":[{"name":"","type":"bytes","internalType":"bytes"}],"stateMutability":"nonpayable"},{"type":"function","name":"manager","inputs":[],"outputs":[{"name":"","type":"address","internalType":"address"}],"stateMutability":"view"},{"type":"function","name":"owner","inputs":[],"outputs":[{"name":"","type":"address","internalType":"address"}],"stateMutability":"view"},{"type":"function","name":"paused","inputs":[],"outputs":[{"name":"","type":"bool","internalType":"bool"}],"stateMutability":"view"},{"type":"function","name":"setManager","inputs":[{"name":"_manager","type":"address","internalType":"address"}],"outputs":[],"stateMutability":"nonpayable"},{"type":"function","name":"togglePause","inputs":[],"outputs":[],"stateMutability":"nonpayable"},{"type":"function","name":"withdraw","inputs":[{"name":"amount","type":"uint256","internalType":"uint256"}],"outputs":[],"stateMutability":"nonpayable"},{"type":"event","name":"Deposited","inputs":[{"name":"user","type":"address","indexed":true,"internalType":"address"},{"name":"amount","type":"uint256","indexed":false,"internalType":"uint256"}],"anonymous":false},{"type":"event","name":"Executed","inputs":[{"name":"target","type":"address","indexed":true,"internalType":"address"},{"name":"value","type":"uint256","indexed":false,"internalType":"uint256"},{"name":"data","type":"bytes","indexed":false,"internalType":"bytes"}],"anonymous":false},{"type":"event","name":"ManagerUpdated","inputs":[{"name":"manager","type":"address","indexed":true,"internalType":"address"}],"anonymous":false},{"type":"event","name":"Paused","inputs":[{"name":"paused","type":"bool","indexed":false,"internalType":"bool"}],"anonymous":false},{"type":"event","name":"Withdrawn","inputs":[{"name":"user","type":"address","indexed":true,"internalType":"address"},{"name":"amount","type":"uint256","indexed":false,"internalType":"uint256"}],"anonymous":false}],"bytecode":{"object":"0x608060405234801561000f575f5ffd5b506040516110d93803806110d983398181016040528101906100319190610115565b815f5f6101000a81548173ffffffffffffffffffffffffffffffffffffffff021916908373ffffffffffffffffffffffffffffffffffffffff1602179055508060015f6101000a81548173ffffffffffffffffffffffffffffffffffffffff021916908373ffffffffffffffffffffffffffffffffffffffff1602179055505050610153565b5f5ffd5b5f73ffffffffffffffffffffffffffffffffffffffff82169050919050565b5f6100e4826100bb565b9050919050565b6100f4816100da565b81146100fe575f5ffd5b50565b5f8151905061010f816100eb565b92915050565b5f5f6040838503121561012b5761012a6100b7565b5b5f61013885828601610101565b925050602061014985828601610101565b9150509250929050565b610f79806101605f395ff3fe608060405260043610610089575f3560e01c80638da5cb5b116100585780638da5cb5b1461014c578063b61d27f614610176578063c4ae3168146101b2578063d0e30db0146101c8578063d0ebdbe7146101d257610090565b806327e235e3146100945780632e1a7d4d146100d0578063481c6a75146100f85780635c975abb1461012257610090565b3661009057005b5f5ffd5b34801561009f575f5ffd5b506100ba60048036038101906100b5919061097a565b6101fa565b6040516100c791906109bd565b60405180910390f35b3480156100db575f5ffd5b506100f660048036038101906100f19190610a00565b61020f565b005b348015610103575f5ffd5b5061010c6103c7565b6040516101199190610a3a565b60405180910390f35b34801561012d575f5ffd5b506101366103ec565b6040516101439190610a6d565b60405180910390f35b348015610157575f5ffd5b506101606103ff565b60405161016d9190610a3a565b60405180910390f35b348015610181575f5ffd5b5061019c60048036038101906101979190610ae7565b610423565b6040516101a99190610bc8565b60405180910390f35b3480156101bd575f5ffd5b506101c6610611565b005b6101d0610711565b005b3480156101dd575f5ffd5b506101f860048036038101906101f3919061097a565b610804565b005b6002602052805f5260405f205f915090505481565b600160149054906101000a900460ff161561025f576040517f08c379a000000000000000000000000000000000000000000000000000000000815260040161025690610c42565b60405180910390fd5b8060025f3373ffffffffffffffffffffffffffffffffffffffff1673ffffffffffffffffffffffffffffffffffffffff1681526020019081526020015f205410156102df576040517f08c379a00000000000000000000000000000000000000000000000000000000081526004016102d690610caa565b60405180910390fd5b8060025f3373ffffffffffffffffffffffffffffffffffffffff1673ffffffffffffffffffffffffffffffffffffffff1681526020019081526020015f205f82825461032b9190610cf5565b925050819055503373ffffffffffffffffffffffffffffffffffffffff166108fc8290811502906040515f60405180830381858888f19350505050158015610375573d5f5f3e3d5ffd5b503373ffffffffffffffffffffffffffffffffffffffff167f7084f5476618d8e60b11ef0d7d3f06914655adb8793e28ff7f018d4c76d505d5826040516103bc91906109bd565b60405180910390a250565b60015f9054906101000a900473ffffffffffffffffffffffffffffffffffffffff1681565b600160149054906101000a900460ff1681565b5f5f9054906101000a900473ffffffffffffffffffffffffffffffffffffffff1681565b606060015f9054906101000a900473ffffffffffffffffffffffffffffffffffffffff1673ffffffffffffffffffffffffffffffffffffffff163373ffffffffffffffffffffffffffffffffffffffff16146104b4576040517f08c379a00000000000000000000000000000000000000000000000000000000081526004016104ab90610d72565b60405180910390fd5b600160149054906101000a900460ff1615610504576040517f08c379a00000000000000000000000000000000000000000000000000000000081526004016104fb90610c42565b60405180910390fd5b5f5f8673ffffffffffffffffffffffffffffffffffffffff1686868660405161052e929190610dcc565b5f6040518083038185875af1925050503d805f8114610568576040519150601f19603f3d011682016040523d82523d5f602084013e61056d565b606091505b5091509150816105b2576040517f08c379a00000000000000000000000000000000000000000000000000000000081526004016105a990610e2e565b60405180910390fd5b8673ffffffffffffffffffffffffffffffffffffffff167fcaf938de11c367272220bfd1d2baa99ca46665e7bc4d85f00adb51b90fe1fa9f8787876040516105fc93929190610e78565b60405180910390a28092505050949350505050565b5f5f9054906101000a900473ffffffffffffffffffffffffffffffffffffffff1673ffffffffffffffffffffffffffffffffffffffff163373ffffffffffffffffffffffffffffffffffffffff161461069f576040517f08c379a000000000000000000000000000000000000000000000000000000000815260040161069690610ef2565b60405180910390fd5b600160149054906101000a900460ff1615600160146101000a81548160ff0219169083151502179055507f0e2fb031ee032dc02d8011dc50b816eb450cf856abd8261680dac74f72165bd2600160149054906101000a900460ff166040516107079190610a6d565b60405180910390a1565b600160149054906101000a900460ff1615610761576040517f08c379a000000000000000000000000000000000000000000000000000000000815260040161075890610c42565b60405180910390fd5b3460025f3373ffffffffffffffffffffffffffffffffffffffff1673ffffffffffffffffffffffffffffffffffffffff1681526020019081526020015f205f8282546107ad9190610f10565b925050819055503373ffffffffffffffffffffffffffffffffffffffff167f2da466a7b24304f47e87fa2e1e5a81b9831ce54fec19055ce277ca2f39ba42c4346040516107fa91906109bd565b60405180910390a2565b5f5f9054906101000a900473ffffffffffffffffffffffffffffffffffffffff1673ffffffffffffffffffffffffffffffffffffffff163373ffffffffffffffffffffffffffffffffffffffff1614610892576040517f08c379a000000000000000000000000000000000000000000000000000000000815260040161088990610ef2565b60405180910390fd5b8060015f6101000a81548173ffffffffffffffffffffffffffffffffffffffff021916908373ffffffffffffffffffffffffffffffffffffffff1602179055508073ffffffffffffffffffffffffffffffffffffffff167f2c1c11af44aa5608f1dca38c00275c30ea091e02417d36e70e9a1538689c433d60405160405180910390a250565b5f5ffd5b5f5ffd5b5f73ffffffffffffffffffffffffffffffffffffffff82169050919050565b5f61094982610920565b9050919050565b6109598161093f565b8114610963575f5ffd5b50565b5f8135905061097481610950565b92915050565b5f6020828403121561098f5761098e610918565b5b5f61099c84828501610966565b91505092915050565b5f819050919050565b6109b7816109a5565b82525050565b5f6020820190506109d05f8301846109ae565b92915050565b6109df816109a5565b81146109e9575f5ffd5b50565b5f813590506109fa816109d6565b92915050565b5f60208284031215610a1557610a14610918565b5b5f610a22848285016109ec565b91505092915050565b610a348161093f565b82525050565b5f602082019050610a4d5f830184610a2b565b92915050565b5f8115159050919050565b610a6781610a53565b82525050565b5f602082019050610a805f830184610a5e565b92915050565b5f5ffd5b5f5ffd5b5f5ffd5b5f5f83601f840112610aa757610aa6610a86565b5b8235905067ffffffffffffffff811115610ac457610ac3610a8a565b5b602083019150836001820283011115610ae057610adf610a8e565b5b9250929050565b5f5f5f5f60608587031215610aff57610afe610918565b5b5f610b0c87828801610966565b9450506020610b1d878288016109ec565b935050604085013567ffffffffffffffff811115610b3e57610b3d61091c565b5b610b4a87828801610a92565b925092505092959194509250565b5f81519050919050565b5f82825260208201905092915050565b8281835e5f83830152505050565b5f601f19601f8301169050919050565b5f610b9a82610b58565b610ba48185610b62565b9350610bb4818560208601610b72565b610bbd81610b80565b840191505092915050565b5f6020820190508181035f830152610be08184610b90565b905092915050565b5f82825260208201905092915050565b7f54726561737572793a20706175736564000000000000000000000000000000005f82015250565b5f610c2c601083610be8565b9150610c3782610bf8565b602082019050919050565b5f6020820190508181035f830152610c5981610c20565b9050919050565b7f54726561737572793a20696e73756666696369656e742062616c616e636500005f82015250565b5f610c94601e83610be8565b9150610c9f82610c60565b602082019050919050565b5f6020820190508181035f830152610cc181610c88565b9050919050565b7f4e487b71000000000000000000000000000000000000000000000000000000005f52601160045260245ffd5b5f610cff826109a5565b9150610d0a836109a5565b9250828203905081811115610d2257610d21610cc8565b5b92915050565b7f54726561737572793a206e6f74206d616e6167657200000000000000000000005f82015250565b5f610d5c601583610be8565b9150610d6782610d28565b602082019050919050565b5f6020820190508181035f830152610d8981610d50565b9050919050565b5f81905092915050565b828183375f83830152505050565b5f610db38385610d90565b9350610dc0838584610d9a565b82840190509392505050565b5f610dd8828486610da8565b91508190509392505050565b7f54726561737572793a2065786563757465206661696c656400000000000000005f82015250565b5f610e18601883610be8565b9150610e2382610de4565b602082019050919050565b5f6020820190508181035f830152610e4581610e0c565b9050919050565b5f610e578385610b62565b9350610e64838584610d9a565b610e6d83610b80565b840190509392505050565b5f604082019050610e8b5f8301866109ae565b8181036020830152610e9e818486610e4c565b9050949350505050565b7f54726561737572793a206e6f74206f776e6572000000000000000000000000005f82015250565b5f610edc601383610be8565b9150610ee782610ea8565b602082019050919050565b5f6020820190508181035f830152610f0981610ed0565b9050919050565b5f610f1a826109a5565b9150610f25836109a5565b9250828201905080821115610f3d57610f3c610cc8565b5b9291505056fea264697066735822122099f6b5cbbbacc923f2b8b003a4f1d2946c7a1c9518833413eaf2ddd78275869764736f6c634300081c0033","linkReferences":{}},"methodIdentifiers":{"balances(address)":"27e235e3","deposit()":"d0e30db0","execute(address,uint256,bytes)":"b61d27f6","manager()":"481c6a75","owner()":"8da5cb5b","paused()":"5c975abb","setManager(address)":"d0ebdbe7","togglePause()":"c4ae3168","withdraw(uint256)":"2e1a7d4d"},"id":0}